:020000000F28C7
:10000800FE00030EF0000408F1000A08F200831253
:100018007F08F3009B28AC28B420B12013280630B1
:100028008312A7001330A600B130A500A50B1A282B
:10003800A60B1A28A70B1A28212801306A2079153F
:100048007908831285008230A600DD30A500A50B53
:100058002B28A60B2B2830287911790883128500C4
:100068008230A600DD30A500A50B3828A60B38285D
:100078003D28132813280F288312A0000830F50004
:100088007508A100F91079088500A6205C2883125C
:1000980020080139F500F50D79087506FD39750652
:1000A800F90079088500A62003108312A00C5C28AB
:1000B80001308312A1022108FF3A031D6428652834
:1000C8004B28F91479088500A62008008312A3009C
:1000D8007030F6007608A20074282408402074289E
:1000E80001308312A307FF30230784008520F60020
:1000F8007608A400A408031D822883287128842870
:10010800080000308A000408840A82070034543446
:100118006834693473342034693473342034613476
:10012800203474346534733474340A3400347308F6
:10013800FF0072088A0071088400700E8300FE0EAA
:100148007E0E09001930F400F40BA82800000800FE
:10015800F701F801F90183011028831685010800C9
:0201680008008D
:08400000FF3FFF3FFF3FFF3FC0
:02400E00D4F8E4
:00000001FF
