:020000000F28C7
:10000800FE00030EF0000408F1000A08F200831253
:100018007F08F300532C0D2C00308A000408840A52
:1000280082070034013400340A3400346434003464
:10003800E8340334103427340A340A340A340A34CE
:100048002034203420342034203420342034203408
:1000580020342034203420342034203420342034F8
:1000680020342034203420342034203420342034E8
:100078002034203420340A3400344634723469344D
:100088006434673465342034663469347834203411
:100098006234793420344A3461346D3465347334CD
:1000A8002034483461346734653472346D346134D3
:1000B8006E340A340034203454346F346F342034AE
:1000C80063346F346C3464342134203454347534DC
:1000D80072346E3469346E34673420346F34663465
:1000E800663421340A3400342034573441345934C6
:1000F800203474346F346F3420347734613472347C
:100108006D342134203441344C34413452344D342C
:10011800213421340A340034203454346F346F3499
:1001280020347734613472346D34213420345434BB
:10013800753472346E3469346E34673420346F34F5
:100148006E3421340A340034533465346E347334D5
:100158006F34723420346E346F347434203466341F
:100168006F3475346E346434213421340A340034E5
:10017800543465346D347034653472346134743495
:100188007534723465342034693473343A34203425
:10019800253469340A340034533465346E34733486
:1001A8006F347234203466346F3475346E3464348A
:1001B80021340A3400348312B2002B30AD002D08EC
:1001C800B0008D293808253A0319EB28EC28EF28C8
:1001D8003808C4238D29B101F6289E290729072943
:1001E8008D2907290130B207FF303207840010201B
:1001F800B800003A03199E29643A031907290D3AF1
:10020800031907298D293008840083130008B400D6
:10021800840A0008B5000230AD002D08B007B51FEC
:100228001629172921290330AD002D08B104B40976
:10023800B509B40A0319B50A2129B8010314B80D80
:100248003808053A031D29292A292C294C294C2923
:100258003808AD002D07013E84001020AE001020A4
:10026800AF002F083502031D3B292E08340203185E
:100278003E293F2941294C294C290130AD002D0840
:10028800B8073808053A031D4A294B292C294C2957
:100298003108033903195129522955292D30C4230E
:1002A800552983123808AD002D08B30080290A307B
:1002B800A7000030A8003308AD002D07013E8400D8
:1002C8001020A0001020A1003508A301A3073408BE
:1002D800A201A207CD2283122108AA01AA07200899
:1002E800A901A9071C2383122708303EAE002E0857
:1002F800B8003808C4238029FF308312AD002D08C8
:10030800B3073308FF3A031D8A298B295B298D29F6
:100318008D2901308312B207FF3032078400102084
:10032800AD002D08B800B808031D9B299C29E628B4
:100338009E299E2908007324672406308312BB0077
:100348001330BA00B130B900B90BA829BA0BA829E3
:10035800BB0BA829AF2906308312BB001330BA00A3
:10036800B130B900B90BB629BA0BB629BB0BB629FF
:10037800BD2906308312BB001330BA00B130B90072
:10038800B90BC429BA0BC429BB0BC429CB290B3020
:10039800DF202C30DF20EE238312B9003908C70094
:1003A8004708013A031DD929DA29DD299330DF20CE
:1003B800E129BB30DF20E129E1291A308312BB0093
:1003C8005E30BA008630B900B90BE829BA0BE829C3
:1003D800BB0BE82900003C30452283122608C601E1
:1003E800C6072508C501C5074608AC01AC0745087E
:1003F800AB01AB07A730DF2083124608803AFF0025
:1004080080307F02031D0A2A1A30450203180D2A7C
:100418000E2A162A4A30DF207911F9127908831238
:100428008500162A83124608803AFF0080307F0232
:10043800031D202A2D304502031C232A242A2C2A96
:100448007B30DF207915F9127908831285002C2A70
:1004580083124608803AFF0080307F02031D362A47
:1004680047304502031C392A3A2AE1296330DF2044
:100478007915F916790883128500E129E129E1291E
:100488000F288312B400F330B2000030B300EE231B
:10049800553095238312B50108303502031C552ABF
:1004A800562A582A6C2A6C2A35083407A7002708C8
:1004B800840083130008952301308312A7002708BE
:1004C800B50708303502031C6A2A6B2A582A6C2A99
:1004D80044309523702A702A3F24003A0319752A5C
:1004E800762A702A772AEE23553095238312B50190
:1004F80008303502031C812A822A842A982A982ADD
:1005080035083407A70027088400831300089523BB
:1005180001308312A7002708B50708303502031CED
:10052800962A972A842A982ABE3095238312B501E1
:1005380009303502031CA12AA22AA42AB82AB82AFB
:1005480061238312A7003508293E840027088313F6
:1005580080000130A7002708B50709303502031CC1
:10056800B62AB72AA42AB82A2A08A700A801270861
:10057800A800A70129082707B20028080318280A95
:10058800B3003308A601A6073208A501A507CC2A9F
:1005980008008312A501A601210820040319D52A01
:1005A800D62A142BA4010314A40DE62A0130031043
:1005B800A00DA10DFF3E031DDB2A0130F4007408D5
:1005C800A407E62AA11FE92AEA2ADA2AEC2AEC2A51
:1005D80001300310A50DA60DFF3E031DED2A2108CD
:1005E8002302031DF92A20082202031CFC2AFD2AE3
:1005F800052B2008A2022108031CA303A30225142B
:10060800052B01300310A10CA00CFF3E031D062B87
:100618000130A402031D112B122BEC2A142B142BCE
:100628002608A101A1072508A001A0071B2B080087
:100638008312280827040319222B232B592BF60190
:100648000314F60D332B01300310A70DA80DFF3E40
:10065800031D282B0130F5007508F607332BA81F5A
:10066800362B372B272B392B392B28082A02031D29
:100678003F2B27082902031C422B432B4A2B270810
:10068800A9022808031CAA03AA024A2B0130031056
:10069800A80CA70CFF3E031D4B2B0130F602031DCF
:1006A800562B572B392B592B592B2A08A801A80749
:1006B8002908A701A707602B08008312A001A10140
:1006C80008302102031C692B6A2B6C2B922B922B6E
:1006D8003F24003A0319712B722B812B0130F5004E
:1006E8008312210A792B0310F50DFF3E031D772B8A
:1006F8007508F6007608A004812B2730F500F50B65
:10070800832B862B0130F50075088312A10708306A
:100718002102031C902B912B6C2B922B2008942BDD
:1007280008008312A200A40108302402031C9D2B98
:100738009E2BA02BBF2BBF2B2208A000240AA62B80
:100748000310A00CFF3E031DA42B2008A1002108C4
:10075800A3000130A0002008A305230827240130A6
:100768008312A0002008A40708302402031CBD2B14
:10077800BE2BA02BBF2B2130A000A00BC12B080043
:100788008312A0000830F5007508A100F910790857
:1007980085006D24E02B831220080139F500F50D42
:1007A80079087506FD397506F900790885006D2404
:1007B80003108312A00CE02B01308312A102210840
:1007C800FF3A031DE82BE92BCF2BF9147908850094
:1007D8006D2408008316051679127908831285009E
:1007E80083160512A630F400F40BF82B00008316CC
:1007F80005161730F400F40BFF2B00308312051A8E
:100808000130F5008F30F400F40B082C75080C2C1F
:100818000800F701F801F901C501C601C7015E2406
:10082800BC005F24BD006024BE006124BF006224B8
:10083800C0006324C1006424C2006524C300662488
:10084800C40083019F29F500791279088312850075
:100858008316051200007508013A031D342C352C47
:10086800382C83160516382C2130F400F40B3A2C5A
:1008780083160516080079127908831285008316F5
:1008880005120000831605160330F400F40B4A2CF9
:100898004D2C4E2C8312050E0139522C080073087A
:1008A800FF0072088A0071088400700E8300FE0E33
:1008B8007E0E09002834A534A134463401340034AE
:1008C800003415340034831681139F01D930850014
:1008D80008001930F400F40B6F2C00000800080021
:08400000FF3FFF3FFF3FFF3FC0
:02400E00D4F8E4
:00000001FF
