:040000008A11112828
:10000800FE00030EF0000408F1000A08F200831253
:1000180003137F08F3008A11F52F8A111328F901B9
:1000280083135330840059308A1156208A11A03026
:100038008400CE308A1156208A118A116B208A11C9
:10004800F7008A116C20F80083018A11552E1530AB
:100058008A1131238A11003A0319080016308A11CF
:1000680031238A11003A0319080083120313D801B7
:10007800D80A0930B1008230B2008A11692208001A
:10008800013083120313C4004408D7078A11842659
:100098000800FF3083120313C4004408D7078A11ED
:1000A8008426080064008001840A040603190034C9
:1000B80004065728F400831203130C1E5F287408E3
:1000C800990008007030831603138F000800173456
:0200D8000034F2
:10020000FF1B0A2983137F1883170008840A031928
:10021000FF0A08007F087F398A000408840A03194E
:10022000FF0A8200013400340A340034643400349C
:10023000E8340334103427345734653427346C34AD
:100240006C342034703475347434203479346F3421
:10025000753420346234613463346B34203469344F
:100260006E342034743475346E3469346E346734CB
:1002700020346D346F3464346534203473346F3417
:10028000203479346F3475342034633461346E34FF
:10029000203466346934783420346934743420343A
:1002A0006E346F3477342E3420340A340D340034F5
:1002B000543475346E3469346E3467342034723497
:1002C0006534733465347434203474346F342034BA
:1002D00066346134633474346F3472347934203466
:1002E000643465346634613475346C347434733416
:1002F0002E342034423465347434743465347234AA
:100300002034743475346E34653420346934743474
:10031000203461346734613469346E3421340A34F2
:100320000D340034523465347334653474347434A9
:1003300069346E3467342034743475346E346934FF
:100340006E346734203474346F342034663461344E
:10035000633474346F3472347934203464346534E3
:100360006634613475346C34743473342E342E3402
:100370002E340A340D3400340A340D3452346534CA
:10038000643420344B346534793462346F346134EE
:100390007234643420346234793420344A34613421
:1003A0006D346534733420344834613467346534D3
:1003B00072346D3461346E3420343234303431343C
:1003C00035340A340D3400344334753472347234A5
:1003D00065346E34743420346B34653479343A3493
:1003E000203425346934093420344334753472346C
:1003F000723465346E3474342034763461346C3441
:10040000753465343A342034253469340A340D3473
:1004100000340A340D3445346E3474346534723427
:1004200069346E3467342034743475346E3469340E
:100430006E34673420346D346F34643465342E3454
:100440002E342E340A340D3400344E346F34743468
:1004500065343A3420342534693409342034563430
:1004600061346C34753465343A342034253469345D
:100470000A340D34003443347534723472346534C4
:100480006E34743420346B34653479343A34203427
:10049000253469340A340D340034573472346934E5
:1004A000743469346E3467342034763461346C3497
:1004B000753465343A342034253469340034443496
:1004C0006F346E34653421340A340D3400342E34E4
:1004D0000034333083120313B7003708BA00831295
:1004E00003133208B8003108B700B10A0319B20A81
:1004F0003808FF00370884008A1100218A11B900EA
:100500003908BF003F080319080025303F060319CA
:100510008E2A3F088A115E208A116F2A83120313E4
:10052000BB013208B8003108B700B10A0319B20A9A
:100530003808FF00370884008A1100218A11BF00A3
:10054000003A0319302B643A0319AA2A0D3A031909
:10055000AA2A6F2A3A08840083130008BD00840A7F
:100560000008BE000230B7003708BA07BE1FC12A14
:100570000330B7003708BB04BD09BE09BD0A031923
:10058000BE0ABF01BF0A05303F060319E82A3F082B
:10059000B7003707123E840081300318013EFF0088
:1005A0008A1100218A11B8008A1100218A11B9002C
:1005B00039083E02031DDE2A38083D02031CE82AE2
:1005C0000130B7003708BF0705303F06031DC72AB3
:1005D0003B0803390319F02A2D308A115E208A1155
:1005E000831203133F08B7003708BC00FF308312A3
:1005F0000313B7003708BC073C0A03196F2A0A30F7
:10060000AB000030AC003C08B7003707123E840056
:1006100081300318013EFF008A1100218A11A400D5
:100620008A1100218A11A5003E08A7003D08A600F6
:100630008A116A258A11831203132508AE00240843
:10064000AD008A1121268A11831203132B08303E34
:10065000B8003808BF003F088A115E208A11F62AC8
:100660000800F6007608013EFF3A013E7707F400E5
:100670007408F6001030760203188C2B76080139C6
:10068000F400F40DF40D8312031305087406FB390E
:10069000740685007608F40001300310F40CFF3E68
:1006A000031D4D2B01307405F50007087506FE3952
:1006B000750687007608F40002300310F40CFF3E44
:1006C000031D5D2B74080139F500F50D070875064B
:1006D000FD39750687007608F40003300310F40C2A
:1006E000FF3E031D6E2B74080139F500F50DF50D65
:1006F00007087506FB39750687000330F50097304B
:10070000F400F40B812BF50B812B862B8312031342
:10071000051AC52B0130080076080139F400F40EE3
:100720008312031306087406EF39740686007608F0
:10073000F4000310740C0139F500F50DF50DF50DFD
:1007400007087506F739750687007608F400023049
:100750000310F40CFF3E031DA82B74080139F500AB
:10076000F50E07087506EF39750687000330F500AA
:100770009730F400F40BBA2BF50BBA2BBF2B831276
:100780000313851AC52B0130080000300800023021
:1007900083120313CF000430CE00BA30CD00CD0B4E
:1007A000CF2BCE0BCF2BCF0BCF2B0000F901072C7B
:1007B00013307906031DDF2B8A1144208A11113072
:1007C0007906031DE62B8A114D208A111230790615
:1007D000031DF02B8312031357088A1177278A1100
:1007E00014307906031DFA2B8312031357088A115C
:1007F00053278A1105307906031D012C8A113424F0
:100800008A11013083120313CD004D08F9077908CE
:1008100083120313CD00CE0178084E02031D122C63
:1008200077084D020318242C79088A1131238A1184
:10083000003A0319012C7908031DD82B83120313E6
:10084000D8018A1128258A11831203135708CD0075
:100850004D07A03E840083130008F400840A0008BA
:10086000F5008A11B0260800923083120313B100FC
:100870008130B2008A1169228A11F9017908831244
:100880000313CA00CB0178084B02031D492C7708DB
:100890004A0203187E2C7708FF3E83120313A4003C
:1008A00078080318013EFF3EA5007908CA00CB0175
:1008B0004A08A0004B08A100DE30A2000530A300CA
:1008C0008A119B278A11831203132108A70020088D
:1008D000A6008A116A258A11790883120313CC00B5
:1008E0004C07A03E8400240883138000840A250856
:1008F00080000130CA004A08F9073E2C8A112825D9
:100900008A11583083120313B1008130B2008A116A
:1009100069228A111C3083120313B1008130B200A6
:100920008A116922080083120313D501D6016430AD
:10093000D3000030D400F9017908AB00AC0178088D
:100940002C02031DA52C77082B020318C42C790850
:100950008A1131238A11003A0319BD2C0130831208
:100960000313D5070318D60A0030D6077908AB0061
:10097000AC012B08D3002C08D400013083120313E0
:10098000AB002B08F9079C2C550856040319DF2CE3
:1009900087165308A0005408A100A201A3018A11E0
:1009A000BE278A11831203132108AE002008AD0070
:1009B0002E08F5002D08F4008A11B02608008712D1
:1009C000080083120313C5004508C0004007A03E7D
:1009D000840083130008C300840A0008C400133095
:1009E0004402893003194302031CFF2C4508C00050
:1009F0004007A03E84008001840A8001102D103041
:100A00004402003003194302031C102D4508C000A6
:100A10004007A03E8400FF308000840A0F30800031
:100A2000E430B1008130B2004508C000C101400887
:100A3000B3004108B4004508C2004207A03E84004C
:100A40000008B500840A0008B6008A11692208006F
:100A5000F901790883120313C600C7017808470219
:100A6000031D342D77084602031808007908831205
:100A70000313C6004607A03E840083130008C80085
:100A8000840A0008C9004D30B1008230B200490824
:100A9000B4004808B3008A1169228A118312031333
:100AA0004908C1004808C0007908C60046078A11F5
:100AB000E6258A115F3083120313B1008230B20041
:100AC0008A1169228A11013083120313C600460875
:100AD000F907292D83120313A901AA01240825046B
:100AE0000319A32DA801A80AA51B822D013003100C
:100AF000A40DA50DFF3E031D772D0130F6007608ED
:100B0000A807742D01300310A90DAA0DFF3E031D87
:100B1000832D25082702031D8F2D24082602031C80
:100B2000982D2408A6022508031CA703A702291450
:100B300001300310A50CA40CFF3E031D992D0130BC
:100B4000A802031D822D2A08A5002908A400080078
:100B50007030831603138F00831203179E019F01C9
:100B600083160313850186018701861686179B115C
:100B7000333099001815181283120313981718129E
:100B8000831603139816871306160613071383128A
:100B9000031307179412F030940583160313941768
:100BA0001417831203131412941683160313871257
:100BB00005168113151605110710871007118516E4
:100BC000811395160612871107120800831203136A
:100BD000C5004008C2004208C3004108C2004208E4
:100BE000C4004308C2004208F40045088A112D27BA
:100BF0008A11032E673083120313B1008230B200D2
:100C00008A1169228A11831603178C18FA2D831210
:100C100003134408C2004208F4004508013E8A114B
:100C20002D278A111C2E673083120313B1008230E6
:100C3000B2008A1169228A11831603178C18132EA9
:100C40000800831203132B082C040319502EB00143
:100C5000B00AAC1B372E01300310AB0DAC0DFF3EBC
:100C6000031D2C2E0130AF002F08B007292E2C08B1
:100C70002E02031D3D2E2B082D02031C452E2B0892
:100C8000AD022C08031CAE03AE0201300310AC0C05
:100C9000AB0CFF3E031D462E0130B002031D372E64
:100CA0002E08AC002D08AB0008008A1166208A11BE
:100CB0008A11A8258A11BC3083120313B100813038
:100CC000B2008A1169228A118A1105278A118A11B4
:100CD0002B208A118312031358080319732E8A11CB
:100CE000C7238A116A2E0B30D2002630D10066301D
:100CF000D000D00B792ED10B792ED20B792E802EED
:100D00008A1193248A11802E83120313D71F8A2EEF
:100D1000D701A42E5708C000C101C01BC10377082A
:100D2000FF3EC20078080318013EFF3EC3004108A1
:100D30004302031D9D2E400842020318A42E77088B
:100D4000FF3EC0004008D7003B30B1008230B20007
:100D50005708B300B401B31BB4038A116922080019
:100D60008312031307130030A2003030A300FF30BA
:100D70007405F4000F307505F50074082204A00016
:100D800075082304A1002108A000A1012008A200E9
:100D90002108A3002208930083160313141CCC2EF1
:100DA000740883120313930083160313141CD42EA8
:100DB000831203130717080083120313AA002A08DB
:100DC0008A11DA278A1183120313A2002208A800CD
:100DD0002A08013E8A11DA2783120313A20022088F
:100DE000A9002808A200A3012908A400A50124083D
:100DF000A500A40122082404A60023082504A700B6
:100E00002708A1002608A0000800F901790883122C
:100E10000313AB00AC0178082C02031D112F7708D7
:100E20002B0203180800790883120313AB002B0769
:100E30008A11DC268A11790883120313AC002C076F
:100E4000A03E8400200883138000840A21088000CB
:100E50000130AB002B08F907062FF60083160317A5
:100E60008C182E2F7608831203178D0074088C00BF
:100E70003F30F5007508831603178C0583120313A2
:100E800003108B1B03148B13831603170C1555309B
:100E90008D00AA308D008C140C1183120313031CD7
:100EA00008008B17080083120313CB004B08C60001
:100EB0004607A03E840083130008C900840A000886
:100EC000CA004908013EC6004A080318013E003E18
:100ED000C7004B08C8004807A03E840046088000B1
:100EE000840A470880004B088A11E1240800831215
:100EF0000313CB004B08C6004607A03E84008313B3
:100F00000008C900840A0008CA004908FF3EC6005C
:100F10004A080318013EFF3EC7004B08C8004807B7
:100F2000A03E840046088000840A470880004B08E1
:100F30008A11E1240800F401F50183120313201C37
:100F4000A72F2208F4070318F50A2308F507013034
:100F50000310A20DA30DFF3E031DA82F01300310A7
:100F6000A10CA00CFF3E031DAF2F20082104031D80
:100F70009D2F7508A1007408A000080083120313B8
:100F80002008A4002407A03E840083130008A500C5
:100F9000840A0008A6002508A7002608A800A901C1
:100FA000AA012A08A3002908A2002808A1002708EE
:100FB000A0000800F5006400831603178C18DB2FCF
:100FC0007508831203178D003F30F40074088316F0
:100FD00003178C050C1403100C18031400300318AD
:100FE0000130831203170C0808007308FF00720811
:100FF0008A0071088400700E8300FE0E7E0E0900C8
:02400E00E4F0DC
:00000001FF
