:040000008A11112828
:10000800FE00030EF0000408F1000A08F200831253
:1000180003137F08F3008A110F2C8A111328C001DB
:10002800C101C201C301C4018A1127248A11C50074
:100038008A112824C60083018A116B2983120313AD
:10004800B4002830AE002E08B1000130831203132B
:10005800B407FF30340784008A1153228A11AE0096
:100068002E08B7003708031908002530370603198A
:10007800422837088A111A248A112928831203135F
:10008800B2010130B407FF30340784008A115322CB
:100098008A11B700003A0319D628643A0319582878
:1000A8000D3A0319582829283108840083130008B9
:1000B800B500840A0008B6000230AE002E08B10769
:1000C800B61F6F280330AE002E08B204B509B60972
:1000D800B50A0319B60AB701B70A05303706031976
:1000E80092283708AE002E07013E84008A11532259
:1000F8008A11AF008A1153228A11B00030083602E3
:10010800031D88282F083502031C92280130AE00F1
:100118002E08B70705303706031D7528320803393E
:1001280003199A282D308A111A248A11831203136D
:100138003708AE002E08B300FF3083120313AE0059
:100148002E08B307330A031929280A30A300003000
:10015800A4003308AE002E07013E84008A11532202
:100168008A11F4008A1153228A11F5003608F70023
:100178003508F6008A11EA228A11750883120313DA
:10018800A6007408A5008A119C238A118312031300
:100198002308303EAF002F08B70037088A111A2409
:1001A8008A11A0280800F6007608013EFF3A013EB1
:1001B800831203134507F4007408F6001030760222
:1001C8000318322976080139F400F40DF40D0508F6
:1001D8007406FB39740685007608F40001300310B4
:1001E800F40CFF3E031DF32801307405F5000708E1
:1001F8007506FE39750687007608F400023003108C
:10020800F40CFF3E031D032974080139F500F50DB0
:1002180007087506FD39750687007608F40003306F
:100228000310F40CFF3E031D142974080139F5006E
:10023800F50DF50D07087506FB39750687000330BF
:10024800F5009730F400F40B2729F50B27292C2902
:1002580083120313051A6929013008007608013949
:10026800F400F40E06087406EF3974068600760862
:10027800F4000310740C0139F500F50DF50DF50DBA
:1002880007087506F739750687007608F400023006
:100298000310F40CFF3E031D4C2974080139F500C6
:1002A800F50E07087506EF39750687000330F50067
:1002B8009730F400F40B5E29F50B5E29632983124D
:1002C8000313851A692901300800003008008A11D3
:1002D80022248A118A1128238A118A11FC238A115F
:1002E8008312031344080319882940308A112220F5
:1002F8008A110A308A11D7208A11003A0319742901
:1003080083120313C40174290B30BB002630BA00D2
:100318006630B900B90B8E29BA0B8E29BB0B8E2912
:10032800952983120313C201C3016430C000003051
:10033800C100BE01BF0146083F02031DA5294508AB
:100348003E020318C3293E088A11D7208A11003AB1
:100358000319BA29013083120313C2070318C30A09
:100368000030C3073F08C1003E08C00001308312B7
:100378000313BE070318BF0A0030BF079F294208AE
:1003880043040319F12987164008B5004108B6004F
:10039800B701B8018A1166238A118312031336083C
:1003A800BD003508BC004108A9004008A8003D0868
:1003B800AB003C08AA004308AD004208AC000B3073
:1003C8008A1122208A11831203133D08F5003C0884
:1003D800F4008A11D0238A119529871295290030B3
:1003E80083120313B3000030B2000030B1000030B4
:1003F800B0002B082A042904280403194A2AB40146
:10040800B40AAB1B152A0130F9000310A80DA90D79
:10041800AA0DAB0DF90B092A0130F9007908B407C8
:10042800052A0130F9000310B00DB10DB20DB30D5E
:10043800F90B172A2B082F02031D2C2A2A082E0233
:10044800031D2C2A29082D02031D2C2A28082C02FA
:10045800031C3D2A2808AC022908031C290FAD02F9
:100468002A08031C2A0FAE022B08031C2B0FAF020D
:10047800301401300310AB0CAA0CA90CA80CFF3ED9
:10048800031D3E2A0130B402031D152A3308AB00B0
:100498003208AA003108A9003008A8000800023074
:1004A8008A000408840A82070034013400340A34BC
:1004B800003464340034E8340334103427344C34C2
:1004C80061347334743420344B34653479343A34B9
:1004D80020342534693420340934203452346534C6
:1004E80061346C342034563461346C34753465347A
:1004F8003A34203425346934203420340934203403
:10050800503472346534733473346534643420344D
:100518004B346534793473343A34203425346934AF
:1005280020340A340D34003449346E3420347434A1
:1005380075346E3469346E34673420346D346F34F6
:10054800643465340A340D3400340030F800003067
:10055800F7000030F6000030F50083120313201C6A
:10056800C92A2408F507250803110318013E031DAD
:10057800F607260803110318013E031DF70727088D
:1005880003110318013E031DF8070130F40003109E
:10059800A40DA50DA60DA70DF40BCB2A0130031051
:1005A800A30CA20CA10CA00CFF3E031DD32A230808
:1005B800220421042004031DB12A7808A300770827
:1005C800A2007608A1007508A00008008312031392
:1005D800A001A101740875040319232BA201A20A22
:1005E800F51B022B01300310F40DF50DFF3E031D22
:1005F800F72A0130F8007808A207F42A013003101E
:10060800A00DA10DFF3E031D032B75087702031DE6
:100618000F2B74087602031C182B7408F602750851
:10062800031CF703F702201401300310F50CF40C37
:10063800FF3E031D192B0130A202031D022B2108C6
:10064800F5002008F40008007030831603138F00AB
:10065800831203179E019F018316031385018601E8
:100668008701861686179B113330990018151812C2
:1006780083120313981718128316031398168713F7
:100688000616061307138312031307179412F03084
:100698009405831603139417141783120313141263
:1006A8009416831603138712051681131516051160
:1006B80007108710071185168113951606128711E2
:1006C80007120800831203134508FF3EA8004608D6
:1006D8000318013EFF3EA900AA01AB013808A30098
:1006E8003708A2003608A1003508A0000030A7008E
:1006F8000030A6000530A500DE30A4008A11A9222A
:100708008A11831203132308AF002208AE002108C0
:10071800AD002008AC008A11F321831203132B08C3
:10072800B8002A08B7002908B6002808B50008004C
:1007380083120313230824040319CB2BA701A70A48
:10074800A41BB22B01300310A30DA40DFF3E031D03
:10075800A72B0130F9007908A707A42B2408260243
:10076800031DB82B23082502031CC02B2308A50250
:100778002408031CA603A60201300310A40CA30C32
:10078800FF3E031DC12B0130A702031DB22B260813
:10079800A4002508A30008008312031307130030E0
:1007A800F8003030F900FF307405F4000F3075059B
:1007B800F50074087804F60075087904F7007708DE
:1007C800F600F7017608F8007708F9007808930032
:1007D80083160313141CEC2B740883120313930061
:1007E80083160313141CF42B831203130717080032
:1007F80000308A11D7208A11003A031908001630F0
:100808008A11D7208A11003A0319080083120313AA
:10081800C401C40A08007308FF0072088A0071083E
:100828008400700E8300FE0E7E0E0900F400831211
:1008380003130C1E1B2C74089900080070308316D3
:0A08480003138F000800173400347A
:02400E00E4F0DC
:00000001FF
