:040000008A11112828
:10000800FE00030EF0000408F1000A08F200831253
:1000180003137F08F3008A110E298A11132883011C
:100028008A1116288A1119218A118A11D0208A1159
:100038000B30F6002630F5006630F400F40B222869
:10004800F50B2228F60B222829281730F40074080B
:10005800F700F801F9017908F400F501F41BF5033C
:100068007508803AF60080307602031D3D2877082F
:1000780074020318C5287908803A703E03188C2842
:1000880079080139F400F40DF40D831203130508FF
:100098007406FB39740685007908F40001300310F2
:1000A800F41B0314F40CFF3E031D532801307405A0
:1000B800F50007087506FE39750687007908F4000B
:1000C80002300310F41B0314F40CFF3E031D6528D3
:1000D80074080139F500F50D07087506FD39750630
:1000E80087007908F40003300310F41B0314F40CA0
:1000F800FF3E031D782874080139F500F50DF50D4C
:1001080007087506FB3975068700051AC028BC283C
:1001180079080139F400F40E8312031306087406F3
:10012800EF39740686007908F4000310F41B0314F1
:10013800740C0139F500F50DF50DF50D0708750678
:10014800F739750687007908F40002300310F41BAC
:100158000314F40CFF3E031DAA2874080139F500A6
:10016800F50E07087506EF3975068700851AC02849
:100178000130F4007408F8070130F4007408F90736
:100188002F2878080319CC288312031387162928E7
:1001980083120313871229287030831603138F00E4
:1001A800831203179E019F0183160313850186019D
:1001B8008701861686179B110F309900181518129B
:1001C80083120313981718128316031398168713AC
:1001D8000616061307138312031307179412F03039
:1001E8009405831603139417141783120313141218
:1001F8009416831603138712051681131516051115
:100208000710871007118516811395160612871196
:10021800071208007308FF0072088A00710884003A
:10022800700E8300FE0E7E0E0900703083160313D5
:040238008F0008002B
:02400E00E4F0DC
:00000001FF
