:040000008A11112828
:10000800FE00030EF0000408F1000A08F200831253
:1000180003137F08F3008A11CF2D8A111328F901E1
:1000280083134130840047308A11DA258A11A030C1
:100038008400CE308A11DA258A118A11EF258A11B7
:10004800C7008A11F025C80083018A115B2C003093
:100058008A000408840A82070034013400340A3410
:10006800003464340034E8340334103427344C3416
:1000780061347334743420344B34653479343A340D
:10008800203425346934203409342034523465341A
:1000980061346C342034563461346C3475346534CE
:1000A8003A34203425346934203420340934203457
:1000B80050347234653473347334653464342034A2
:1000C8004B346534793473343A3420342534693404
:1000D80020340A340D3400340A340D345234653473
:1000E800643420344B346534793462346F34613489
:1000F8007234643420346234793420344A346134BC
:100108006D3465347334203448346134673465346D
:1001180072346D3461346E342034323430343134D6
:1001280035340A340D3400340A340D3445346E3411
:1001380074346534723469346E34673420347434FA
:1001480075346E3469346E34673420346D346F34EA
:10015800643465342E342E342E340A340D3400348D
:100168004E346F34743465343A3420342534693469
:1001780009342034563461346C34753465343A3477
:100188002034253469340A340D3400345734723439
:100198006934743469346E346734203476346134A5
:1001A8006C34753465343A34203425346934003479
:1001B80044346F346E34653421340A340D340034D9
:1001C8002E34003483120313B5002930AF002F08F2
:1001D800B200013083120313B507FF3035078400DE
:1001E8008A112B208A11AF002F08B800380803198C
:1001F8000800253038060319062938088A11E2252F
:100208008A11ED2883120313B3010130B507FF30BB
:10021800350784008A112B208A11B800003A031987
:100228009A29643A03191C290D3A03191C29ED2847
:100238003208840083130008B600840A0008B70057
:100248000230AF002F08B207B71F33290330AF00C1
:100258002F08B304B609B709B60A0319B70AB801D3
:10026800B80A05303806031956293808AF002F0791
:10027800013E84008A112B208A11B0008A112B209C
:100288008A11B10031083702031D4C2930083602A3
:10029800031C56290130AF002F08B807053038066F
:1002A800031D39293308033903195E292D308A11B2
:1002B800E2258A11831203133808AF002F08B4000F
:1002C800FF3083120313AF002F08B407340A031951
:1002D800ED280A30A3000030A4003408AF002F072F
:1002E800013E84008A112B208A11F4008A112B20E8
:1002F8008A11F5003708F7003608F6008A11DF235F
:100308008A11750883120313A6007408A5008A11C0
:10031800C7248A11831203132308303EB000300823
:10032800B80038088A11E2258A1164290800F60005
:100338007608013EFF3A013E831203134707F40093
:100348007408F600103076020318F6297608013989
:10035800F400F40DF40D05087406FB3974068500E5
:100368007608F40001300310F40CFF3E031DB72992
:1003780001307405F50007087506FE397506870013
:100388007608F40002300310F40CFF3E031DC72961
:1003980074080139F500F50D07087506FD3975066D
:1003A80087007608F40003300310F40CFF3E031DA9
:1003B800D82974080139F500F50DF50D07087506FB
:1003C800FB39750687000330F5009730F400F40B0D
:1003D800EB29F50BEB29F02983120313051A2D2AB3
:1003E8000130080076080139F400F40E0608740696
:1003F800EF39740686007608F4000310740C01398E
:10040800F500F50DF50DF50D07087506F7397506B4
:1004180087007608F40002300310F40CFF3E031D39
:10042800102A74080139F500F50E07087506EF392A
:10043800750687000330F5009730F400F40B222A84
:10044800F50B222A272A83120313851A2D2A013035
:10045800080000300800023083120313A2000430A1
:10046800A100BA30A000A00B372AA10B372AA20B93
:10047800372A000083120313C501682A1330450682
:10048800031D4A2A0130A0002008F907113045064B
:10049800031D522AFF30A0002008F9071230450634
:1004A800031D592A8A11F2258A1114308312031365
:1004B8004506031D622A8A11F1258A11013083122B
:1004C8000313A0002008C5074508A000A10148089B
:1004D8002102031D712A470820020318802A4508B3
:1004E8008A119B218A11003A0319622A8312031385
:1004F8004508031D422AC601F91F842AF90108008C
:100508007908A000A101A01BA1034708FF3EA20093
:1005180048080318013EFF3EA30021082302031DDB
:10052800972A20082202031808004708FF3EA00067
:100538002008F900080083120313C301C4016430C2
:10054800C1000030C200C5014508BA00BB01480817
:100558003B02031DB12A47083A020318D02A45086E
:100568008A119B218A11003A0319C92A0130831282
:100578000313C3070318C40A0030C4074508BA00A8
:10058800BB013A08C1003B08C200013083120313C3
:10059800BA003A08C507A82A430844040319FD2AE3
:1005A80087164108B6004208B700B801B9018A1198
:1005B80091248A11831203133708BD003608BC0042
:1005C8004208AA004108A9003D08AC003C08AB005D
:1005D8004408AE004308AD000B308A11E6208A11AA
:1005E800831203133D08F5003C08F4008A11FB242C
:1005F800080087120800003083120313B40000308B
:10060800B3000030B2000030B1002B082A042904DE
:1006180028040319562BB501B50AAB1B212B013051
:10062800B0000310A80DA90DAA0DAB0DB00B152B2A
:100638000130B0003008B507112B0130B0000310AD
:10064800B10DB20DB30DB40DB00B232B2B082F0237
:10065800031D382B2A082E02031D382B29082D02CA
:10066800031D382B28082C02031C492B2808AC0230
:100678002908031C290FAD022A08031C2A0FAE0201
:100688002B08031C2B0FAF02311401300310AB0CE5
:10069800AA0CA90CA80CFF3E031D4A2B0130B50279
:1006A800031D212B3408AB003308AA003208A90027
:1006B8003108A80008000030F8000030F7000030CA
:1006C800F6000030F50083120313201C7F2B24084A
:1006D800F507250803110318013E031DF607260830
:1006E80003110318013E031DF70727080311031818
:1006F800013E031DF8070130F4000310A40DA50DF9
:10070800A60DA70DF40B812B01300310A30CA20C2E
:10071800A10CA00CFF3E031D892B230822042104F1
:100728002004031D672B7808A3007708A200760829
:10073800A1007508A000080083120313C50145082D
:10074800B900BA0148083A02031DAC2B4708390220
:10075800031808004508B9003907A03E8400831330
:100768000008BB00840A0008BC003C08AA003B083B
:10077800A9009A308A11E6208A11831203133B08D4
:10078800B9003908F40045088A1152258A11D02B7E
:10079800B4308A11E6208A11831603178C18CC2BE3
:1007A800AC308A11E6208A11013083120313B90094
:1007B8003908C507A32B83120313A001A1017408EC
:1007C80075040319182CA201A20AF51BF72B013096
:1007D8000310F40DF50DFF3E031DEC2B0130F8005E
:1007E8007808A207E92B01300310A00DA10DFF3EE8
:1007F800031DF82B75087702031D042C7408760274
:10080800031C0D2C7408F6027508031CF703F70285
:10081800201401300310F50CF40CFF3E031D0E2CC0
:100828000130A202031DF72B2108F5002008F4006F
:1008380008007030831603138F00831203179E017C
:100848009F01831603138501860187018616861783
:100858009B11333099001815181283120313981737
:100868001812831603139816871306160613071310
:100878008312031307179412F03094058316031399
:100888009417141783120313141294168316031360
:100898008712051681131516051107108710071101
:1008A80085168113951606128711071208008A11FA
:1008B800EA258A118A111D248A1140308A11E620FE
:1008C8008A118A1178258A118A1127258A1164309C
:1008D80083160313B4000030B5008A11A0238A11CF
:1008E8008A11B9258A118312031346080319802C2B
:1008F8008A112F228A11772C0B30C0002630BF00B6
:100908006630BE00BE0B862CBF0B862CC00B862C17
:100918008D2C8A119F228A118D2C8312031347086C
:10092800FF3EA80048080318013EFF3EA900AA019F
:10093800AB013908A3003808A2003708A10036081F
:10094800A0000030A7000030A6000530A500DE306A
:10095800A4008A115F238A11831203132308AF00AE
:100968002208AE002108AD002008AC008A11FF2241
:10097800831203132B08B9002A08B8002908B70006
:100988002808B60008008312031323082404031957
:10099800F62CA801A80AA41BDD2C01300310A30D16
:1009A800A40DFF3E031DD22C0130A7002708A8077D
:1009B800CF2C24082602031DE32C23082502031C40
:1009C800EB2C2308A5022408031CA603A602013069
:1009D8000310A40CA30CFF3E031DEC2C0130A8024D
:1009E800031DDD2C2608A4002508A3000800831297
:1009F800031307130030A0003030A100FF30740546
:100A0800F4000F307505F50074082004F600750829
:100A18002104F7007708F600F7017608A0007708A8
:100A2800A1002008930083160313141C172D7408C3
:100A380083120313930083160313141C1F2D8312B0
:100A480003130717080083120313C5014508B900EB
:100A5800BA0148083A02031D332D47083902031822
:100A680008004508B900BA013908A9003A08AA00DF
:100A78004508BB003B07A03E840083130008AB0079
:100A8800840A0008AC0084308A11E6208A110130FB
:100A980083120313B9003908C5072A2DF6008316F7
:100AA80003178C18532D7608831203178D007408CA
:100AB8008C003F30F5007508831603178C058312E8
:100AC800031303108B1B03148B13831603170C15C6
:100AD80055308D00AA308D008C140C11831203132D
:100AE800031C08008B17080083120313C50145086F
:100AF800F600F70148087702031D842D470876029F
:100B08000318080045088A119E258A11F600F70186
:100B1800831203134508F8007807A03E840076087E
:100B280083138000840A770880000130F600760875
:100B3800C5077B2DF5006400831603178C189F2DBD
:100B48007508831203178D003F30F400740883166C
:100B580003178C050C1403100C1803140030031829
:100B68000130831203170C08080015308A119B21E5
:100B78008A11003A0319080016308A119B218A113C
:100B8800003A0319080083120313C601C60A683025
:100B98008A11E62008007308FF0072088A007108AD
:100BA8008400700E8300FE0E7E0E09006400800132
:100BB800840A0406031900340406DB2DF4008312AA
:100BC80003130C1EE32D7408990008007030831677
:0E0BD80003138F0008001734003408000800D3
:02400E00E4F0DC
:00000001FF
