:040000008A11112828
:10000800FE00030EF0000408F1000A08F200831253
:1000180003137F08F3008A11602A8A111328C2018A
:10002800C301C401C5018A1170228A11C6008A1150
:100038007122C70083018A1121288A116B228A1133
:100048008A11C0218A110B3083120313BB0026309A
:10005800BA006630B900B90B2F28BA0B2F28BB0B92
:100068002F28362883120313C401C5016430C20047
:100078000030C300C001C10147084102031D4628E2
:10008800460840020318EC280030410210300319DA
:1000980040020318A02840080139B900B90DB90D6C
:1000A80005083906FB39390685004108BA004008B9
:1000B800B9000310BA0CB90C01303905BB000708A8
:1000C8003B06FE393B0687004108BA004008B900E4
:1000D8000310BA0CB90C0310BA0CB90C3908013961
:1000E800BB00BB0D07083B06FD393B0687004108EE
:1000F800BA004008B9000310BA0CB90C0310BA0CC6
:10010800B90C0310BA0CB90C39080139BB00BB0D86
:10011800BB0D07083B06FB393B0687000330BA00D6
:100128009730B900B90B9628BA0B96289B288312EA
:100138000313051AE528DB2840080139B900B90E70
:1001480006083906EF39390686004108BA00400822
:10015800B9000310BA0CB90C39080139BB00BB0D42
:10016800BB0DBB0D07083B06F7393B068700410866
:10017800BA004008B9000310BA0CB90C0310BA0C45
:10018800B90C39080139BB00BB0E07083B06EF392B
:100198003B0687000330BA009730B900B90BD22864
:1001A800BA0BD228D72883120313851AE528013001
:1001B800C4070318C50A0030C5074108C300400832
:1001C800C2000130C0070318C10A0030C107402827
:1001D8004408450403191D2987164208013EB90041
:1001E80043080318013E003EBA00B909BA09B90A22
:1001F8000319BA0A46083907BC0047080318470A12
:100208003A07BD003C08B5003D08B600B701B80183
:100218008A11FE218A11831203133608BF0035089C
:10022800BE003F08F5003E08F4008A1134228A1106
:10023800362887123628003083120313B3000030A3
:10024800B2000030B1000030B0002B082A042904A5
:10025800280403197629B401B40AAB1B41290130DB
:10026800F9000310A80DA90DAA0DAB0DF90B35293E
:100278000130F9007908B40731290130F900031079
:10028800B00DB10DB20DB30DF90B43292B082F0298
:10029800031D58292A082E02031D582929082D0252
:1002A800031D582928082C02031C69292808AC02B8
:1002B8002908031C290FAD022A08031C2A0FAE02C5
:1002C8002B08031C2B0FAF02301401300310AB0CAA
:1002D800AA0CA90CA80CFF3E031D6A290130B40220
:1002E800031D41293308AB003208AA003108A900D0
:1002F8003008A80008000030F8000030F70000308F
:10030800F6000030F50083120313201C9F292408EF
:10031800F507250803110318013E031DF6072608F3
:1003280003110318013E031DF707270803110318DB
:10033800013E031DF8070130F4000310A40DA50DBC
:10034800A60DA70DF40BA12901300310A30CA20CD4
:10035800A10CA00CFF3E031DA92923082204210497
:100368002004031D87297808A3007708A2007608CF
:10037800A1007508A00008007030831603138F00D1
:10038800831203179E019F018316031385018601BB
:100398008701861686179B11333099001815181295
:1003A80083120313981718128316031398168713CA
:1003B8000616061307138312031307179412F03057
:1003C8009405831603139417141783120313141236
:1003D8009416831603138712051681131516051133
:1003E80007108710071185168113951606128711B5
:1003F80007120800831203134608FF3EA8004708A7
:100408000318013EFF3EA900AA01AB013808A3006A
:100418003708A2003608A1003508A0000030A70060
:100428000030A6000530A500DE30A4008A117F2127
:100438008A11831203132308AF002208AE00210893
:10044800AD002008AC008A111F21831203132B086A
:10045800B8002A08B7002908B6002808B50008001F
:100468008312031307130030F8003030F900FF300F
:100478007405F4000F307505F50074087804F6006B
:1004880075087904F7007708F600F7017608F80090
:100498007708F9007808930083160313141C502A70
:1004A800740883120313930083160313141C582A29
:1004B80083120313071708007308FF0072088A00E5
:1004C80071088400700E8300FE0E7E0E09007030E5
:0C04D800831603138F0008001734003453
:02400E00E4F0DC
:00000001FF
