:040000008A11112828
:10000800FE00030EF0000408F1000A08F200831253
:1000180003137F08F3008A11282E8A111328F80188
:10002800F901C701C801C901CA01CB018313A03076
:100038008400CE308A1133268A118A1148268A1103
:10004800CC008A114926CD0083018A115A2C003030
:100058008A000408840A82070034013400340A3410
:10006800003464340034E8340334103427344C3416
:1000780061347334743420344B34653479343A340D
:10008800203425346934203409342034523465341A
:1000980061346C342034563461346C3475346534CE
:1000A8003A34203425346934203420340934203457
:1000B80050347234653473347334653464342034A2
:1000C8004B346534793473343A3420342534693404
:1000D80020340A340D3400340A340D345234653473
:1000E800643420344B346534793462346F34613489
:1000F8007234643420346234793420344A346134BC
:100108006D3465347334203448346134673465346D
:1001180072346D3461346E342034323430343134D6
:1001280035340A340D3400340A340D3445346E3411
:1001380074346534723469346E34673420347434FA
:1001480075346E3469346E34673420346D346F34EA
:10015800643465342E342E342E340A340D3400348D
:100168004E346F34743465343A3420342534693469
:1001780009342034563461346C34753465343A3477
:100188002034253469340A340D3400345734723439
:100198006934743469346E346734203476346134A5
:1001A8006C34753465343A34203425346934003479
:1001B80044346F346E34653421340A340D340034D9
:1001C800683400346C34003483120313B8002A30C6
:1001D800B0003008B300013083120313B807FF30B2
:1001E800380784008A112B208A11B0003008B90022
:1001F8003908031908002530390603190829390870
:100208008A113B268A11EF2883120313B4010130A7
:10021800B807FF30380784008A112B208A11B900EB
:10022800003A03199C29643A03191E290D3A031947
:100238001E29EF283308840083130008B600840AB7
:100248000008B7000230B0003008B307B71F3529DF
:100258000330B0003008B404B609B709B60A031968
:10026800B70AB901B90A05303906031958293908F6
:10027800B0003007013E84008A112B208A11B1009A
:100288008A112B208A11B20032083702031D4E2929
:1002980031083602031C58290130B0003008B9076C
:1002A80005303906031D3B29340803390319602931
:1002B8002D308A113B268A11831203133908B000A6
:1002C8003008B500FF3083120313B0003008B507BB
:1002D800350A0319EF280A30A4000030A5003508B4
:1002E800B0003007013E84008A112B208A11F400E7
:1002F8008A112B208A11F5003708F7003608F60016
:100308008A11A4238A11750883120313A70074089D
:10031800A6008A11C6248A11831203132408303ECA
:10032800B1003108B90039088A113B268A116629BB
:100338000800F6007608013EFF3A013E83120313D7
:100348004C07F4007408F600103076020318F829F8
:1003580076080139F400F40DF40D05087406FB392C
:10036800740685007608F40001300310F40CFF3E93
:10037800031DB92901307405F50007087506FE3913
:10038800750687007608F40002300310F40CFF3E6F
:10039800031DC92974080139F500F50D070875060C
:1003A800FD39750687007608F40003300310F40C55
:1003B800FF3E031DDA2974080139F500F50DF50D26
:1003C80007087506FB39750687000330F500973076
:1003D800F400F40BED29F50BED29F2298312031330
:1003E800051A2F2A0130080076080139F400F40EA6
:1003F80006087406EF39740686007608F4000310C0
:10040800740C0139F500F50DF50DF50D07087506A5
:10041800F739750687007608F40002300310F40CEB
:10042800FF3E031D122A74080139F500F50E07086E
:100438007506EF39750687000330F5009730F4002C
:10044800F40B242AF50B242A292A83120313851A6C
:100458002F2A0130080000300800023083120313ED
:10046800A2000430A100BA30A000A00B392AA10BC9
:10047800392AA20B392A0000F8016A2A13307806B3
:10048800031D4C2A013083120313A0002008F9072A
:1004980011307806031D562AFF3083120313A0007B
:1004A8002008F90712307806031D5D2A8A114B26A9
:1004B8008A1114307806031D642A8A114A268A1183
:1004C800013083120313A0002008F807780883126C
:1004D8000313A000A1014D082102031D752A4C0831
:1004E80020020318842A78088A119D218A11003A6B
:1004F8000319642A7808031D422A83120313CB01C7
:10050800F91F882AF90108007908A000A101A01B99
:10051800A1034C08FF3EA2004D080318013EFF3E10
:10052800A30021082302031D9B2A20082202031886
:1005380008004C08FF3EA0002008F90008008312BC
:100548000313C901CA016430C7000030C800F801AC
:100558007808BD00BE014D083E02031DB52A4C08AF
:100568003D020318D42A78088A119D218A11003A7D
:100578000319CD2A013083120313C9070318CA0AC5
:100588000030CA077808BD00BE013D08C7003E0814
:10059800C800013083120313BD003D08F807AC2AD8
:1005A80049084A040319012B87164708B900480867
:1005B800BA00BB01BC018A1190248A11831203136B
:1005C8003A08C0003908BF004808AB004708AA002D
:1005D8004008AD003F08AC004A08AF004908AE002B
:1005E8000B308A11E8208A11831203134008F500A2
:1005F8003F08F4008A1158250800871208000030C7
:1006080083120313B7000030B6000030B500003085
:10061800B4002F082E042D042C0403195A2BB801FA
:10062800B80AAF1B252B0130F5000310AC0DAD0D3A
:10063800AE0DAF0DF50B192B0130F5007508B80795
:10064800152B0130F5000310B40DB50DB60DB70D1F
:10065800F50B272B2F083302031D3C2B2E083202E3
:10066800031D3C2B2D083102031D3C2B2C083002A6
:10067800031C4D2B2C08B0022D08031C2D0FB102B2
:100688002E08031C2E0FB2022F08031C2F0FB302D3
:10069800341401300310AF0CAE0CAD0CAC0CFF3EA3
:1006A800031D4E2B0130B802031D252B3708AF0060
:1006B8003608AE003508AD003408AC00080000303C
:1006C80083120313AB000030AA000030A9000030E9
:1006D800A800201C832B2408A80725080311031849
:1006E800013E031DA907260803110318013E031D37
:1006F800AA07270803110318013E031DAB070130A1
:10070800F4000310A40DA50DA60DA70DF40B852B61
:1007180001300310A30CA20CA10CA00CFF3E031D7A
:100728008D2B2308220421042004031D6D2B2B0884
:10073800A3002A08A2002908A1002808A000080090
:1007480083120313A201A301740875040319DD2B96
:10075800A101A10AF51BBC2B01300310F40DF50D06
:10076800FF3E031DB12B0130A0002008A107AE2BCE
:1007780001300310A20DA30DFF3E031DBD2B75080C
:100788007702031DC92B74087602031CD22B740848
:10079800F6027508031CF703F70222140130031050
:1007A800F50CF40CFF3E031DD32B0130A102031DF1
:1007B800BC2B2308F5002208F400080070308316CB
:1007C80003138F00831203179E019F0183160313DF
:1007D800850186018701861686179B11333099009B
:1007E8001815181283120313981718128316031377
:1007F8009816871306160613071383120313071791
:100808009412F03094058316031394171417831267
:1008180003131412941683160313871205168113F3
:1008280015160511071087100711851681139516DF
:100838000612871107120800F801780883120313BB
:10084800C000C1014D084102031D2C2C4C08400278
:1008580003180800780883120313C0004007A03E5D
:10086800840083130008C200840A0008C3004308F8
:10087800AB004208AA009A308A11E8208A11831234
:1008880003134308BB004208BA007808C0004007B9
:100898008A11FA248A11AC308A11E8208A110130B1
:1008A80083120313C0004008F807212C8A1143263D
:1008B8008A118A11E2238A1140308A11E8208A11AC
:1008C8008A1184258A118A112B258A11643083168E
:1008D8000313B4000030B5008A1120248A118A114C
:1008E80012268A11831203134B0803197F2C8A11CD
:1008F80031228A11762C0B30C6002630C5006630AE
:10090800C400C40B852CC50B852CC60B852C8C2CE0
:100918008A11A3228A118C2C831203134C08FF3EE0
:10092800AC004D080318013EFF3EAD00AE01AF011B
:100938003C08A3003B08A2003A08A1003908A0001F
:100948000030A7000030A6000530A500DE30A40066
:100958008A1163238A11831203132308B300220820
:10096800B2002108B1002008B0008A1103238312C5
:1009780003132F08BC002E08BB002D08BA002C0852
:10098800B900080083120313240825040319F52C61
:10099800A901A90AA51BDC2C01300310A40DA50D83
:1009A800FF3E031DD12C0130A8002808A907CE2C32
:1009B80025082702031DE22C24082602031CEA2C22
:1009C8002408A6022508031CA703A7020130031068
:1009D800A50CA40CFF3E031DEB2C0130A902031D3E
:1009E800DC2C2708A5002608A4000800831203139E
:1009F800BF003A08BC003C08BD003B08BC003C08EE
:100A0800BE003A08BC003C08F4003F088A11AC2537
:100A18008A11122DB4308A11E8208A11831603171F
:100A28008C180E2D831203133A08BC003C08F400FE
:100A38003F08013E8A11AC258A11262DB6308A114D
:100A4800E8208A11831603178C18222D0800F80154
:100A5800780883120313BA00BB014D083B02031D3B
:100A6800372D4C083A02031808007808831203133C
:100A7800BA00BB013A08AA003B08AB007808BC00E2
:100A88003C07A03E840083130008AC00840A0008D9
:100A9800AD0084308A11E8208A11013083120313D3
:100AA800BA003A08F8072C2D8312031307130030F5
:100AB800A0003030A100FF307405F4000F30750538
:100AC800F50074082004F60075082104F70077087B
:100AD800F600F7017608A0007708A1002008930027
:100AE80083160313141C742D7408831203139300C4
:100AF80083160313141C7C2D831203130717080095
:100B0800F801780883120313A700A8014D082802EA
:100B1800031D902D4C08270203180800780883123B
:100B28000313A70027078A11D2258A117808831290
:100B38000313A8002807A03E8400760883138000CA
:100B4800840A770880000130A7002708F807852D58
:100B5800F600831603178C18AD2D76088312031739
:100B68008D0074088C003F30F50075088316031754
:100B78008C058312031303108B1B03148B1383162A
:100B880003170C1555308D00AA308D008C140C11EC
:100B980083120313031C08008B1708008312031326
:100BA800A60026088A11F7258A1183120313A000CC
:100BB8002008A4002608013E8A11F7258312031392
:100BC800A0002008A5002408A000A1012508A20073
:100BD800A3012208A300A20120082204F60021088C
:100BE8002304F7000800F5006400831603178C1827
:100BF800F82D7508831203178D003F30F400740830
:100C0800831603178C050C1403100C1803140030FA
:100C180003180130831203170C08080015308A11D5
:100C28009D218A11003A0319080016308A119D2166
:100C38008A11003A0319080083120313CB01CB0A67
:100C480068308A11E82008007308FF0072088A00DB
:100C580071088400700E8300FE0E7E0E0900640089
:100C68008001840A0406031900340406342EF400B3
:100C7800831203130C1E3C2E740899000800703070
:100C8800831603138F000800173400340800080087
:02400E00E4F0DC
:00000001FF
