:020000000F28C7
:10000800FE00030EF0000408F1000A08F200831253
:100018007F08F300CD291028F9018301AB2883124A
:10002800B1002930AB002B08AE0001308312B107B4
:10003800FF30310784005921AB002B08B400340885
:10004800031908002530340603192D2834088621A1
:1000580019288312AF010130B107FF30310784003E
:100068005921B400003A0319AA28643A0319402810
:100078000D3A0319402819282E0884008313000814
:10008800B200840A0008B3000230AB002B08AE07A8
:10009800B31F57280330AB002B08AF04B209B309CC
:1000A800B20A0319B30AB401B40A053034060319B5
:1000B80076283408AB002B07013E84005921AC0098
:1000C8005921AD002D083302031D6C282C0832027B
:1000D800031C76280130AB002B08B4070530340622
:1000E800031D5D282F08033903197C282D3086212C
:1000F80083123408AB002B08B000FF308312AB002A
:100108002B08B007300A031919280A30A300003059
:10011800A4003008AB002B07013E84005921F400ED
:100128005921F5003308F7003208F600E920750870
:100138008312A6007408A500262183122308303EE6
:10014800AC002C08B4003408862181280800DE2180
:10015800AB210B3013207915790883128500033001
:10016800B7008A30B6005630B500B50BB928B60BC3
:10017800B928B70BB928C0287911790883128500E6
:100188000330B7008A30B6005630B500B50BCA2820
:10019800B60BCA28B70BCA28D12883128519D728C5
:1001A800791079088500851DDC287914790885007F
:1001B800BD2175088312B9007408B8003908AA006F
:1001C8003808A9001C301320AD288312A001A10112
:1001D8007408750403192129A201A20AF51B002934
:1001E80001300310F40DF50DFF3E031DF528013015
:1001F800F8007808A207F22801300310A00DA10D1D
:10020800FF3E031D012975087702031D0D29740897
:100218007602031C16297408F6027508031CF703F6
:10022800F702201401300310F50CF40CFF3E031DF7
:1002380017290130A202031D00292108F500200812
:10024800F400080083122308240403195429A80180
:10025800A80AA41B3B2901300310A30DA40DFF3EDF
:10026800031D30290130A7002708A8072D292408D5
:100278002602031D412923082502031C49292308B6
:10028800A5022408031CA603A60201300310A40C2F
:10029800A30CFF3E031D4A290130A802031D3B2978
:1002A8002608A4002508A300080001308A000408D5
:1002B800840A82070034013400340A340034643478
:1002C8000034E8340334103427345434683469343F
:1002D80073342034693473342034613420347434F2
:1002E8006534733474340A340D34003420346B3478
:1002F8006E346F3462343A342034253469340A3425
:100308000D340034F6000830F5007508F700F910D0
:10031800790883128500D8210130F702770A03197A
:10032800A52976080139F500F50D79087506FD3916
:100338007506F900790883128500D8210310F60C98
:100348009029F914790883128500D82108008316AA
:100358000514851005118515851205169F151F08AA
:100368008F3950389F0083129F171F130C309F043A
:10037800080083121F140830F600F60BC1298312F7
:100388009F149F18C5291E08F50083161E08F4003F
:1003980008007308FF0072088A0071088400700E54
:1003A8008300FE0E7E0E09001930F400F40BDA29E2
:0603B8000000080008002F
:02400E00D4F8E4
:00000001FF
