:020000000F28C7
:10000800FE00030EF0000408F1000A08F200831253
:100018007F08F30097281028F90183011328B020DE
:10002800A2200130812079157908831285000330D8
:10003800A5008A30A4005630A300A30B2128A40BE6
:100048002128A50B212828287911790883128500F1
:100058000330A5008A30A4005630A300A30B322831
:10006800A40B3228A50B32283928831285193F287A
:10007800791079088500851D152879147908850077
:100088001528F6000830F5007508F700F91079080A
:1000980083128500AA200130F7027708FF3A031976
:1000A800652876080139F500F50D79087506FD39DA
:1000B8007506F900790883128500AA200310F60C4A
:1000C8004F28F914790883128500AA200800003007
:1000D8008A000408840A8207003454346834693476
:1000E80073342034693473342034613420347434E4
:1000F8006534733474340A3400348312A2007030C7
:10010800F8007808A00001308312A207FF30220708
:1001180084006B20F8007808A100A10803190800E2
:100128002108452087287308FF0072088A00710893
:100138008400700E8300FE0E7E0E090083160514DF
:100148008510051185150512851208001930F4006F
:0A015800F40BAC28000008000800BA
:02400E00D4F8E4
:00000001FF
