:020000000F28C7
:10000800FE00030EF0000408F1000A08F200831253
:100018007F08F300532B442B64235E23593084005C
:100028003C228312A4003C22A5000730A600003021
:10003800A7002C23413084003C228312A4003C22D8
:10004800A5000030A6000030A7002C235B308400F8
:100058003C228312A4003C22A5000130A6000030F7
:10006800A7002C23533084003C228312A4003C2296
:10007800A5000030A6000030A7002C230130831211
:10008800BD000030BE003E08803AFF0080307F028D
:10009800031D502809303D02031C532854285628B4
:1000A8007728772883123E08A501A5073D08A401F3
:1000B800A4070030A6000030A7002C2301308312CB
:1000C800BD070318BE0A0030BE073E08803AFF008D
:1000D80080307F02031D722809303D02031C7528F9
:1000E800762856287728553084003C228312A400AD
:1000F8003C22A5000F304505A60000304605A700A4
:100108002C23862883124008A901A9073F08A801C3
:10011800A807ED2003308312BC008A30BB0056309C
:10012800BA00BA0B9528BB0B9528BC0B95289C28C0
:1001380002308312BC004530BB00A930BA00BA0BAC
:10014800A328BB0BA328BC0BA328AA28831240080A
:100158003F04031DB028B128B6280130BF00003085
:10016800C000862801303F064004031DBC28BD2876
:10017800C2280230BF000030C000862802303F0687
:100188004004031DC828C9288628BF01C0010330C0
:10019800BC008A30BB005630BA00BA0BD128BB0B62
:1001A800D128BC0BD128D82803308312BC008A3050
:1001B800BB005630BA00BA0BDF28BB0BDF28BC0BDC
:1001C800DF28E628AA2186288628862886288628E1
:1001D8000F288312B601B701B801B9013908803A6E
:1001E800FF0080307F02031DFB2808303802031C03
:1001F800FE28FF280129A929A92983122808AA006D
:1002080004300310AA0DFF3E031D052901302A07FB
:10021800AB003808AC002C072B0784003C22B60042
:100228003C22B7000030A7000030A6008030A500AF
:100238002030A4003608A0003708A100A201A301BD
:10024800A022403083122005AA0084302105AB008B
:1002580008302205AC0000302305AD000030A700AF
:100268000030A6000830A5000230A4003608A0001F
:100278003708A100A201A301A02210308312200593
:10028800AE0021302105AF0002302205B000003059
:100298002305B1002A082E04B2002B082F04B3004E
:1002A8002C083004B4002D083104B5003508A3002B
:1002B8003408A2003308A1003208A0000030A700CB
:1002C8000130A6000130A5000130A400A02283124D
:1002D8002008AA002108AB002208AC002308AD00C2
:1002E80010300310AD0CAC0CAB0CAA0CFF3E031D78
:1002F80075292B08B701B7072A08B601B6073808C9
:10030800013EA40039080318013E003EA500370845
:10031800A701A7073608A601A6072C238312B60152
:10032800B7010130B8070318B90A0030B90739080E
:10033800803AFF0080307F02031DA429083038026C
:10034800031CA729A8290129A9290800013083121B
:10035800BD000030BE003E08803AFF0080307F02BA
:10036800031DB82909303D02031CBB29BC29BE293D
:100378003B2A3B2A01308312C1000030C200013001
:10038800C3000030C4004408803AFF0080307F0278
:10039800031DD0290A304302031CD329D429D629A6
:1003A800262A262A83124308FF3EA800A80A0130FD
:1003B800A9000030AA00E3290310A90DAA0DA80B73
:1003C800E0292908C1002A08C2004208803AFF0033
:1003D80080307F02031DF229FF304102031CF529FA
:1003E800F629FA298312C101C201FA2983123E08AB
:1003F800A501A5073D08A401A4074208A701A7076E
:100408004108A601A6072C2307308312A9007D30D6
:10041800A800A80B0D2AA90B0D2A01308312C307C7
:100428000318C40A0030C4074408803AFF0080302B
:100438007F02031D212A0A304302031C242A252A8D
:10044800D629262A01308312BD070318BE0A0030B8
:10045800BE073E08803AFF0080307F02031D362A1F
:1004680009303D02031C392A3A2ABE293B2A0800D2
:1004780002308A000408840A820700347E3400347B
:100488007E340034183400341834003418340034FE
:10049800183400347E3400347E340034663400343A
:1004A800FF340034FF340034FF3400347E34003429
:1004B8007E3400343C3400341834003408340034BA
:1004C8001C3400343E3400342A3400343E340034C2
:1004D8002E3400343E3400347F3400340034003489
:1004E8000034003400340034003400340034003464
:1004F800003400340034003400340034093400344B
:100508000134003402340034033400340434003439
:100518000534003406340034073400340834003419
:100528000F3400340A340034003400340B340034FF
:100538000C340034043400340030F8000030F70084
:100548000030F6000030F500A92A8312201CAD2ADD
:10055800AE2AC62A2408F507250803110318013E08
:100568000319B72AF607260803110318013E0319D1
:10057800BE2AF707270803110318013E0319C52AE5
:10058800F807C62A0130F4000310A40DA50DA60D26
:10059800A70DF40BC82A01300310A30CA20CA10C60
:1005A800A00CFF3E031DD02A2308220421042004A6
:1005B800031DDF2AE02AA92AE12A7808A300770880
:1005C800A2007608A1007508A000EA2A08000830F1
:1005D8008312A2000030A300242B2208FF3EF6005D
:1005E800F60A0130F7000030F800FD2A0310F70D75
:1005F800F80DF60BFA2A7708A0007808A1007911FF
:100608007908850020087405F60021087505F700AB
:10061800770876040319112B122B162B79147908F5
:1006280085001A2B7910790885001A2B7915790815
:1006380085000130A2020030031CA303A302242B6F
:1006480023082204031D292B2A2BF12A2B2B08000F
:10065800F9107908831285002508F501F5072408A3
:10066800F401F407EB2283122708F501F5072608A1
:10067800F401F407EB22F9147908831285000800C5
:10068800F901BD01BE01BF01C001C101C201C30121
:10069800C4016223C5006323C600830110287308C0
:1006A800FF0072088A0071088400700E8300FE0E35
:1006B8007E0E0900E83083168500080001340034F6
:0206C800080028
:02400E00D4F8E4
:00000001FF
