:040000008A11112828
:10000800FE00030EF0000408F1000A08F200831253
:1000180003137F08F3008A119C288A11132883018F
:100028008A1116288A11AF208A118A1186208A110E
:100038000B3083120313A2002630A1006630A00003
:10004800A00B2428A10B2428A20B24282B2801303C
:100058008A1157208A11FF30831203138500FF305D
:100068008600FF3087000B30A2002630A1006630E2
:10007800A000A00B3D28A10B3D28A20B3D28442839
:10008800831203138501860187010B30A2002630F5
:10009800A1006630A000A00B4F28A10B4F28A20B8F
:1000A8004F2856282B28F8007030F5007508F60000
:1000B8000130F807FF30780784008A116F208A1111
:1000C800F5007508F700F7080319080077088A1182
:1000D800A7208A115C2800308A000408840A820755
:1000E80000345434683469347334203469347334D4
:1000F80020346134203474346534733474342134D6
:100108000A3400347030831603138F00850186018A
:100118008701861686179B110F309900181518123B
:1001280083120313981718168316031398160800DA
:100138007308FF0072088A0071088400700E83003B
:10014800FE0E7E0E0900F400831203130C1EA8286D
:100158007408990008007030831603138F00080094
:02400E00E4F0DC
:00000001FF
